{
  "contractName": "TokenMintERC20Token",
  "abi": [
    {
      "inputs": [
        {
          "internalType": "string",
          "name": "tokenName",
          "type": "string"
        },
        {
          "internalType": "string",
          "name": "tokenSymbol",
          "type": "string"
        },
        {
          "internalType": "uint8",
          "name": "tokenDecimals",
          "type": "uint8"
        },
        {
          "internalType": "uint256",
          "name": "initialSupply",
          "type": "uint256"
        },
        {
          "internalType": "address payable",
          "name": "feeReceiverAddress",
          "type": "address"
        },
        {
          "internalType": "address",
          "name": "tokenOwnerAddress",
          "type": "address"
        }
      ],
      "stateMutability": "payable",
      "type": "constructor"
    },
    {
      "anonymous": false,
      "inputs": [
        {
          "indexed": true,
          "internalType": "address",
          "name": "owner",
          "type": "address"
        },
        {
          "indexed": true,
          "internalType": "address",
          "name": "spender",
          "type": "address"
        },
        {
          "indexed": false,
          "internalType": "uint256",
          "name": "value",
          "type": "uint256"
        }
      ],
      "name": "Approval",
      "type": "event"
    },
    {
      "anonymous": false,
      "inputs": [
        {
          "indexed": true,
          "internalType": "address",
          "name": "from",
          "type": "address"
        },
        {
          "indexed": true,
          "internalType": "address",
          "name": "to",
          "type": "address"
        },
        {
          "indexed": false,
          "internalType": "uint256",
          "name": "value",
          "type": "uint256"
        }
      ],
      "name": "Transfer",
      "type": "event"
    },
    {
      "inputs": [
        {
          "internalType": "address",
          "name": "owner",
          "type": "address"
        },
        {
          "internalType": "address",
          "name": "spender",
          "type": "address"
        }
      ],
      "name": "allowance",
      "outputs": [
        {
          "internalType": "uint256",
          "name": "",
          "type": "uint256"
        }
      ],
      "stateMutability": "view",
      "type": "function"
    },
    {
      "inputs": [
        {
          "internalType": "address",
          "name": "spender",
          "type": "address"
        },
        {
          "internalType": "uint256",
          "name": "value",
          "type": "uint256"
        }
      ],
      "name": "approve",
      "outputs": [
        {
          "internalType": "bool",
          "name": "",
          "type": "bool"
        }
      ],
      "stateMutability": "nonpayable",
      "type": "function"
    },
    {
      "inputs": [
        {
          "internalType": "address",
          "name": "account",
          "type": "address"
        }
      ],
      "name": "balanceOf",
      "outputs": [
        {
          "internalType": "uint256",
          "name": "",
          "type": "uint256"
        }
      ],
      "stateMutability": "view",
      "type": "function"
    },
    {
      "inputs": [],
      "name": "decimals",
      "outputs": [
        {
          "internalType": "uint8",
          "name": "",
          "type": "uint8"
        }
      ],
      "stateMutability": "view",
      "type": "function"
    },
    {
      "inputs": [
        {
          "internalType": "address",
          "name": "spender",
          "type": "address"
        },
        {
          "internalType": "uint256",
          "name": "subtractedValue",
          "type": "uint256"
        }
      ],
      "name": "decreaseAllowance",
      "outputs": [
        {
          "internalType": "bool",
          "name": "",
          "type": "bool"
        }
      ],
      "stateMutability": "nonpayable",
      "type": "function"
    },
    {
      "inputs": [
        {
          "internalType": "address",
          "name": "spender",
          "type": "address"
        },
        {
          "internalType": "uint256",
          "name": "addedValue",
          "type": "uint256"
        }
      ],
      "name": "increaseAllowance",
      "outputs": [
        {
          "internalType": "bool",
          "name": "",
          "type": "bool"
        }
      ],
      "stateMutability": "nonpayable",
      "type": "function"
    },
    {
      "inputs": [],
      "name": "name",
      "outputs": [
        {
          "internalType": "string",
          "name": "",
          "type": "string"
        }
      ],
      "stateMutability": "view",
      "type": "function"
    },
    {
      "inputs": [],
      "name": "symbol",
      "outputs": [
        {
          "internalType": "string",
          "name": "",
          "type": "string"
        }
      ],
      "stateMutability": "view",
      "type": "function"
    },
    {
      "inputs": [],
      "name": "totalSupply",
      "outputs": [
        {
          "internalType": "uint256",
          "name": "",
          "type": "uint256"
        }
      ],
      "stateMutability": "view",
      "type": "function"
    },
    {
      "inputs": [
        {
          "internalType": "address",
          "name": "recipient",
          "type": "address"
        },
        {
          "internalType": "uint256",
          "name": "amount",
          "type": "uint256"
        }
      ],
      "name": "transfer",
      "outputs": [
        {
          "internalType": "bool",
          "name": "",
          "type": "bool"
        }
      ],
      "stateMutability": "nonpayable",
      "type": "function"
    },
    {
      "inputs": [
        {
          "internalType": "address",
          "name": "sender",
          "type": "address"
        },
        {
          "internalType": "address",
          "name": "recipient",
          "type": "address"
        },
        {
          "internalType": "uint256",
          "name": "amount",
          "type": "uint256"
        }
      ],
      "name": "transferFrom",
      "outputs": [
        {
          "internalType": "bool",
          "name": "",
          "type": "bool"
        }
      ],
      "stateMutability": "nonpayable",
      "type": "function"
    },
    {
      "inputs": [
        {
          "internalType": "uint256",
          "name": "value",
          "type": "uint256"
        }
      ],
      "name": "burn",
      "outputs": [],
      "stateMutability": "nonpayable",
      "type": "function"
    }
  ],
  "bytecode": "0x608060405260405162002011380380620020118339818101604052810190620000299190620005ce565b8585858583600390816200003e9190620008d2565b508260049081620000509190620008d2565b508160055f6101000a81548160ff021916908360ff1602179055506200007d33826200014760201b60201c565b5050505081600560016101000a81548173ffffffffffffffffffffffffffffffffffffffff021916908373ffffffffffffffffffffffffffffffffffffffff160217905550620000d481846200014760201b60201c565b600560019054906101000a900473ffffffffffffffffffffffffffffffffffffffff1673ffffffffffffffffffffffffffffffffffffffff166108fc3490811502906040515f60405180830381858888f193505050501580156200013a573d5f803e3d5ffd5b5050505050505062000b35565b5f73ffffffffffffffffffffffffffffffffffffffff168273ffffffffffffffffffffffffffffffffffffffff1603620001b8576040517f08c379a0000000000000000000000000000000000000000000000000000000008152600401620001af9062000a14565b60405180910390fd5b620001cf81600254620002d160201b90919060201c565b60028190555062000226815f808573ffffffffffffffffffffffffffffffffffffffff1673ffffffffffffffffffffffffffffffffffffffff1681526020019081526020015f2054620002d160201b90919060201c565b5f808473ffffffffffffffffffffffffffffffffffffffff1673ffffffffffffffffffffffffffffffffffffffff1681526020019081526020015f20819055508173ffffffffffffffffffffffffffffffffffffffff165f73ffffffffffffffffffffffffffffffffffffffff167fddf252ad1be2c89b69c2b068fc378daa952ba7f163c4a11628f55a4df523b3ef83604051620002c5919062000a45565b60405180910390a35050565b5f808284620002e1919062000a8d565b90508381101562000329576040517f08c379a0000000000000000000000000000000000000000000000000000000008152600401620003209062000b15565b60405180910390fd5b8091505092915050565b5f604051905090565b5f80fd5b5f80fd5b5f80fd5b5f80fd5b5f601f19601f8301169050919050565b7f4e487b71000000000000000000000000000000000000000000000000000000005f52604160045260245ffd5b62000394826200034c565b810181811067ffffffffffffffff82111715620003b657620003b56200035c565b5b80604052505050565b5f620003ca62000333565b9050620003d8828262000389565b919050565b5f67ffffffffffffffff821115620003fa57620003f96200035c565b5b62000405826200034c565b9050602081019050919050565b5f5b838110156200043157808201518184015260208101905062000414565b5f8484015250505050565b5f620004526200044c84620003dd565b620003bf565b90508281526020810184848401111562000471576200047062000348565b5b6200047e84828562000412565b509392505050565b5f82601f8301126200049d576200049c62000344565b5b8151620004af8482602086016200043c565b91505092915050565b5f60ff82169050919050565b620004cf81620004b8565b8114620004da575f80fd5b50565b5f81519050620004ed81620004c4565b92915050565b5f819050919050565b6200050781620004f3565b811462000512575f80fd5b50565b5f815190506200052581620004fc565b92915050565b5f73ffffffffffffffffffffffffffffffffffffffff82169050919050565b5f62000556826200052b565b9050919050565b62000568816200054a565b811462000573575f80fd5b50565b5f8151905062000586816200055d565b92915050565b5f62000598826200052b565b9050919050565b620005aa816200058c565b8114620005b5575f80fd5b50565b5f81519050620005c8816200059f565b92915050565b5f805f805f8060c08789031215620005eb57620005ea6200033c565b5b5f87015167ffffffffffffffff8111156200060b576200060a62000340565b5b6200061989828a0162000486565b965050602087015167ffffffffffffffff8111156200063d576200063c62000340565b5b6200064b89828a0162000486565b95505060406200065e89828a01620004dd565b94505060606200067189828a0162000515565b93505060806200068489828a0162000576565b92505060a06200069789828a01620005b8565b9150509295509295509295565b5f81519050919050565b7f4e487b71000000000000000000000000000000000000000000000000000000005f52602260045260245ffd5b5f6002820490506001821680620006f357607f821691505b602082108103620007095762000708620006ae565b5b50919050565b5f819050815f5260205f209050919050565b5f6020601f8301049050919050565b5f82821b905092915050565b5f600883026200076d7fffffffffffffffffffffffffffffffffffffffffffffffffffffffffffffffff8262000730565b62000779868362000730565b95508019841693508086168417925050509392505050565b5f819050919050565b5f620007ba620007b4620007ae84620004f3565b62000791565b620004f3565b9050919050565b5f819050919050565b620007d5836200079a565b620007ed620007e482620007c1565b8484546200073c565b825550505050565b5f90565b62000803620007f5565b62000810818484620007ca565b505050565b5b8181101562000837576200082b5f82620007f9565b60018101905062000816565b5050565b601f821115620008865762000850816200070f565b6200085b8462000721565b810160208510156200086b578190505b620008836200087a8562000721565b83018262000815565b50505b505050565b5f82821c905092915050565b5f620008a85f19846008026200088b565b1980831691505092915050565b5f620008c2838362000897565b9150826002028217905092915050565b620008dd82620006a4565b67ffffffffffffffff811115620008f957620008f86200035c565b5b620009058254620006db565b620009128282856200083b565b5f60209050601f83116001811462000948575f841562000933578287015190505b6200093f8582620008b5565b865550620009ae565b601f19841662000958866200070f565b5f5b8281101562000981578489015182556001820191506020850194506020810190506200095a565b86831015620009a157848901516200099d601f89168262000897565b8355505b6001600288020188555050505b505050505050565b5f82825260208201905092915050565b7f45524332303a206d696e7420746f20746865207a65726f2061646472657373005f82015250565b5f620009fc601f83620009b6565b915062000a0982620009c6565b602082019050919050565b5f6020820190508181035f83015262000a2d81620009ee565b9050919050565b62000a3f81620004f3565b82525050565b5f60208201905062000a5a5f83018462000a34565b92915050565b7f4e487b71000000000000000000000000000000000000000000000000000000005f52601160045260245ffd5b5f62000a9982620004f3565b915062000aa683620004f3565b925082820190508082111562000ac15762000ac062000a60565b5b92915050565b7f536166654d6174683a206164646974696f6e206f766572666c6f7700000000005f82015250565b5f62000afd601b83620009b6565b915062000b0a8262000ac7565b602082019050919050565b5f6020820190508181035f83015262000b2e8162000aef565b9050919050565b6114ce8062000b435f395ff3fe608060405234801561000f575f80fd5b50600436106100b2575f3560e01c806342966c681161006f57806342966c68146101a057806370a08231146101bc57806395d89b41146101ec578063a457c2d71461020a578063a9059cbb1461023a578063dd62ed3e1461026a576100b2565b806306fdde03146100b6578063095ea7b3146100d457806318160ddd1461010457806323b872dd14610122578063313ce567146101525780633950935114610170575b5f80fd5b6100be61029a565b6040516100cb9190610db0565b60405180910390f35b6100ee60048036038101906100e99190610e61565b61032a565b6040516100fb9190610eb9565b60405180910390f35b61010c610340565b6040516101199190610ee1565b60405180910390f35b61013c60048036038101906101379190610efa565b610349565b6040516101499190610eb9565b60405180910390f35b61015a6103f5565b6040516101679190610f65565b60405180910390f35b61018a60048036038101906101859190610e61565b61040a565b6040516101979190610eb9565b60405180910390f35b6101ba60048036038101906101b59190610f7e565b6104aa565b005b6101d660048036038101906101d19190610fa9565b6104b7565b6040516101e39190610ee1565b60405180910390f35b6101f46104fc565b6040516102019190610db0565b60405180910390f35b610224600480360381019061021f9190610e61565b61058c565b6040516102319190610eb9565b60405180910390f35b610254600480360381019061024f9190610e61565b61062c565b6040516102619190610eb9565b60405180910390f35b610284600480360381019061027f9190610fd4565b610642565b6040516102919190610ee1565b60405180910390f35b6060600380546102a99061103f565b80601f01602080910402602001604051908101604052809291908181526020018280546102d59061103f565b80156103205780601f106102f757610100808354040283529160200191610320565b820191905f5260205f20905b81548152906001019060200180831161030357829003601f168201915b5050505050905090565b5f6103363384846106c4565b6001905092915050565b5f600254905090565b5f610355848484610887565b6103ea84336103e58560015f8a73ffffffffffffffffffffffffffffffffffffffff1673ffffffffffffffffffffffffffffffffffffffff1681526020019081526020015f205f3373ffffffffffffffffffffffffffffffffffffffff1673ffffffffffffffffffffffffffffffffffffffff1681526020019081526020015f2054610aeb90919063ffffffff16565b6106c4565b600190509392505050565b5f60055f9054906101000a900460ff16905090565b5f6104a0338461049b8560015f3373ffffffffffffffffffffffffffffffffffffffff1673ffffffffffffffffffffffffffffffffffffffff1681526020019081526020015f205f8973ffffffffffffffffffffffffffffffffffffffff1673ffffffffffffffffffffffffffffffffffffffff1681526020019081526020015f2054610b4890919063ffffffff16565b6106c4565b6001905092915050565b6104b43382610ba5565b50565b5f805f8373ffffffffffffffffffffffffffffffffffffffff1673ffffffffffffffffffffffffffffffffffffffff1681526020019081526020015f20549050919050565b60606004805461050b9061103f565b80601f01602080910402602001604051908101604052809291908181526020018280546105379061103f565b80156105825780601f1061055957610100808354040283529160200191610582565b820191905f5260205f20905b81548152906001019060200180831161056557829003601f168201915b5050505050905090565b5f610622338461061d8560015f3373ffffffffffffffffffffffffffffffffffffffff1673ffffffffffffffffffffffffffffffffffffffff1681526020019081526020015f205f8973ffffffffffffffffffffffffffffffffffffffff1673ffffffffffffffffffffffffffffffffffffffff1681526020019081526020015f2054610aeb90919063ffffffff16565b6106c4565b6001905092915050565b5f610638338484610887565b6001905092915050565b5f60015f8473ffffffffffffffffffffffffffffffffffffffff1673ffffffffffffffffffffffffffffffffffffffff1681526020019081526020015f205f8373ffffffffffffffffffffffffffffffffffffffff1673ffffffffffffffffffffffffffffffffffffffff1681526020019081526020015f2054905092915050565b5f73ffffffffffffffffffffffffffffffffffffffff168373ffffffffffffffffffffffffffffffffffffffff1603610732576040517f08c379a0000000000000000000000000000000000000000000000000000000008152600401610729906110df565b60405180910390fd5b5f73ffffffffffffffffffffffffffffffffffffffff168273ffffffffffffffffffffffffffffffffffffffff16036107a0576040517f08c379a00000000000000000000000000000000000000000000000000000000081526004016107979061116d565b60405180910390fd5b8060015f8573ffffffffffffffffffffffffffffffffffffffff1673ffffffffffffffffffffffffffffffffffffffff1681526020019081526020015f205f8473ffffffffffffffffffffffffffffffffffffffff1673ffffffffffffffffffffffffffffffffffffffff1681526020019081526020015f20819055508173ffffffffffffffffffffffffffffffffffffffff168373ffffffffffffffffffffffffffffffffffffffff167f8c5be1e5ebec7d5bd14f71427d1e84f3dd0314c0f7b2291e5b200ac8c7c3b9258360405161087a9190610ee1565b60405180910390a3505050565b5f73ffffffffffffffffffffffffffffffffffffffff168373ffffffffffffffffffffffffffffffffffffffff16036108f5576040517f08c379a00000000000000000000000000000000000000000000000000000000081526004016108ec906111fb565b60405180910390fd5b5f73ffffffffffffffffffffffffffffffffffffffff168273ffffffffffffffffffffffffffffffffffffffff1603610963576040517f08c379a000000000000000000000000000000000000000000000000000000000815260040161095a90611289565b60405180910390fd5b6109b2815f808673ffffffffffffffffffffffffffffffffffffffff1673ffffffffffffffffffffffffffffffffffffffff1681526020019081526020015f2054610aeb90919063ffffffff16565b5f808573ffffffffffffffffffffffffffffffffffffffff1673ffffffffffffffffffffffffffffffffffffffff1681526020019081526020015f2081905550610a41815f808573ffffffffffffffffffffffffffffffffffffffff1673ffffffffffffffffffffffffffffffffffffffff1681526020019081526020015f2054610b4890919063ffffffff16565b5f808473ffffffffffffffffffffffffffffffffffffffff1673ffffffffffffffffffffffffffffffffffffffff1681526020019081526020015f20819055508173ffffffffffffffffffffffffffffffffffffffff168373ffffffffffffffffffffffffffffffffffffffff167fddf252ad1be2c89b69c2b068fc378daa952ba7f163c4a11628f55a4df523b3ef83604051610ade9190610ee1565b60405180910390a3505050565b5f82821115610b2f576040517f08c379a0000000000000000000000000000000000000000000000000000000008152600401610b26906112f1565b60405180910390fd5b5f8284610b3c919061133c565b90508091505092915050565b5f808284610b56919061136f565b905083811015610b9b576040517f08c379a0000000000000000000000000000000000000000000000000000000008152600401610b92906113ec565b60405180910390fd5b8091505092915050565b5f73ffffffffffffffffffffffffffffffffffffffff168273ffffffffffffffffffffffffffffffffffffffff1603610c13576040517f08c379a0000000000000000000000000000000000000000000000000000000008152600401610c0a9061147a565b60405180910390fd5b610c2881600254610aeb90919063ffffffff16565b600281905550610c7d815f808573ffffffffffffffffffffffffffffffffffffffff1673ffffffffffffffffffffffffffffffffffffffff1681526020019081526020015f2054610aeb90919063ffffffff16565b5f808473ffffffffffffffffffffffffffffffffffffffff1673ffffffffffffffffffffffffffffffffffffffff1681526020019081526020015f20819055505f73ffffffffffffffffffffffffffffffffffffffff168273ffffffffffffffffffffffffffffffffffffffff167fddf252ad1be2c89b69c2b068fc378daa952ba7f163c4a11628f55a4df523b3ef83604051610d1a9190610ee1565b60405180910390a35050565b5f81519050919050565b5f82825260208201905092915050565b5f5b83811015610d5d578082015181840152602081019050610d42565b5f8484015250505050565b5f601f19601f8301169050919050565b5f610d8282610d26565b610d8c8185610d30565b9350610d9c818560208601610d40565b610da581610d68565b840191505092915050565b5f6020820190508181035f830152610dc88184610d78565b905092915050565b5f80fd5b5f73ffffffffffffffffffffffffffffffffffffffff82169050919050565b5f610dfd82610dd4565b9050919050565b610e0d81610df3565b8114610e17575f80fd5b50565b5f81359050610e2881610e04565b92915050565b5f819050919050565b610e4081610e2e565b8114610e4a575f80fd5b50565b5f81359050610e5b81610e37565b92915050565b5f8060408385031215610e7757610e76610dd0565b5b5f610e8485828601610e1a565b9250506020610e9585828601610e4d565b9150509250929050565b5f8115159050919050565b610eb381610e9f565b82525050565b5f602082019050610ecc5f830184610eaa565b92915050565b610edb81610e2e565b82525050565b5f602082019050610ef45f830184610ed2565b92915050565b5f805f60608486031215610f1157610f10610dd0565b5b5f610f1e86828701610e1a565b9350506020610f2f86828701610e1a565b9250506040610f4086828701610e4d565b9150509250925092565b5f60ff82169050919050565b610f5f81610f4a565b82525050565b5f602082019050610f785f830184610f56565b92915050565b5f60208284031215610f9357610f92610dd0565b5b5f610fa084828501610e4d565b91505092915050565b5f60208284031215610fbe57610fbd610dd0565b5b5f610fcb84828501610e1a565b91505092915050565b5f8060408385031215610fea57610fe9610dd0565b5b5f610ff785828601610e1a565b925050602061100885828601610e1a565b9150509250929050565b7f4e487b71000000000000000000000000000000000000000000000000000000005f52602260045260245ffd5b5f600282049050600182168061105657607f821691505b60208210810361106957611068611012565b5b50919050565b7f45524332303a20617070726f76652066726f6d20746865207a65726f206164645f8201527f7265737300000000000000000000000000000000000000000000000000000000602082015250565b5f6110c9602483610d30565b91506110d48261106f565b604082019050919050565b5f6020820190508181035f8301526110f6816110bd565b9050919050565b7f45524332303a20617070726f766520746f20746865207a65726f2061646472655f8201527f7373000000000000000000000000000000000000000000000000000000000000602082015250565b5f611157602283610d30565b9150611162826110fd565b604082019050919050565b5f6020820190508181035f8301526111848161114b565b9050919050565b7f45524332303a207472616e736665722066726f6d20746865207a65726f2061645f8201527f6472657373000000000000000000000000000000000000000000000000000000602082015250565b5f6111e5602583610d30565b91506111f08261118b565b604082019050919050565b5f6020820190508181035f830152611212816111d9565b9050919050565b7f45524332303a207472616e7366657220746f20746865207a65726f20616464725f8201527f6573730000000000000000000000000000000000000000000000000000000000602082015250565b5f611273602383610d30565b915061127e82611219565b604082019050919050565b5f6020820190508181035f8301526112a081611267565b9050919050565b7f536166654d6174683a207375627472616374696f6e206f766572666c6f7700005f82015250565b5f6112db601e83610d30565b91506112e6826112a7565b602082019050919050565b5f6020820190508181035f830152611308816112cf565b9050919050565b7f4e487b71000000000000000000000000000000000000000000000000000000005f52601160045260245ffd5b5f61134682610e2e565b915061135183610e2e565b92508282039050818111156113695761136861130f565b5b92915050565b5f61137982610e2e565b915061138483610e2e565b925082820190508082111561139c5761139b61130f565b5b92915050565b7f536166654d6174683a206164646974696f6e206f766572666c6f7700000000005f82015250565b5f6113d6601b83610d30565b91506113e1826113a2565b602082019050919050565b5f6020820190508181035f830152611403816113ca565b9050919050565b7f45524332303a206275726e2066726f6d20746865207a65726f206164647265735f8201527f7300000000000000000000000000000000000000000000000000000000000000602082015250565b5f611464602183610d30565b915061146f8261140a565b604082019050919050565b5f6020820190508181035f83015261149181611458565b905091905056fea264697066735822122038385d44b3a7995f4fbf040e1e1ac03f097d2212052ad211a4554f161b02cb8764736f6c63430008150033",
  "immutableReferences": {},
  "source": "// SPDX-License-Identifier: MIT\r\n// File: contracts/open-zeppelin-contracts/token/ERC20/IERC20.sol\r\n\r\npragma solidity ^0.8.21;\r\n\r\ninterface IERC20 {\r\n    function totalSupply() external view returns (uint256);\r\n    function balanceOf(address account) external view returns (uint256);\r\n    function transfer(address recipient, uint256 amount) external returns (bool);\r\n    function allowance(address owner, address spender) external view returns (uint256);\r\n    function approve(address spender, uint256 amount) external returns (bool);\r\n    function transferFrom(address sender, address recipient, uint256 amount) external returns (bool);\r\n    event Transfer(address indexed from, address indexed to, uint256 value);\r\n    event Approval(address indexed owner, address indexed spender, uint256 value);\r\n}\r\n\r\n// File: contracts/open-zeppelin-contracts/math/SafeMath.sol\r\n\r\npragma solidity ^0.8.21;\r\n\r\nlibrary SafeMath {\r\n    function add(uint256 a, uint256 b) internal pure returns (uint256) {\r\n        uint256 c = a + b;\r\n        require(c >= a, \"SafeMath: addition overflow\");\r\n\r\n        return c;\r\n    }\r\n\r\n    function sub(uint256 a, uint256 b) internal pure returns (uint256) {\r\n        require(b <= a, \"SafeMath: subtraction overflow\");\r\n        uint256 c = a - b;\r\n\r\n        return c;\r\n    }\r\n\r\n    function mul(uint256 a, uint256 b) internal pure returns (uint256) {\r\n        if (a == 0) {\r\n            return 0;\r\n        }\r\n\r\n        uint256 c = a * b;\r\n        require(c / a == b, \"SafeMath: multiplication overflow\");\r\n\r\n        return c;\r\n    }\r\n\r\n    function div(uint256 a, uint256 b) internal pure returns (uint256) {\r\n        require(b > 0, \"SafeMath: division by zero\");\r\n        uint256 c = a / b;\r\n\r\n        return c;\r\n    }\r\n\r\n    function mod(uint256 a, uint256 b) internal pure returns (uint256) {\r\n        require(b != 0, \"SafeMath: modulo by zero\");\r\n        return a % b;\r\n    }\r\n}\r\n\r\n// File: contracts/open-zeppelin-contracts/token/ERC20/ERC20.sol\r\n\r\npragma solidity ^0.8.21;\r\n\r\ncontract ERC20 is IERC20 {\r\n    using SafeMath for uint256;\r\n\r\n    mapping (address => uint256) private _balances;\r\n    mapping (address => mapping (address => uint256)) private _allowances;\r\n\r\n    uint256 private _totalSupply;\r\n    string private _name;\r\n    string private _symbol;\r\n    uint8 private _decimals;\r\n\r\n    constructor(string memory tokenName, string memory tokenSymbol, uint8 tokenDecimals, uint256 initialSupply) {\r\n        _name = tokenName;\r\n        _symbol = tokenSymbol;\r\n        _decimals = tokenDecimals;\r\n        _mint(msg.sender, initialSupply);\r\n    }\r\n\r\n    function name() public view returns (string memory) {\r\n        return _name;\r\n    }\r\n\r\n    function symbol() public view returns (string memory) {\r\n        return _symbol;\r\n    }\r\n\r\n    function decimals() public view returns (uint8) {\r\n        return _decimals;\r\n    }\r\n\r\n    function totalSupply() public view override returns (uint256) {\r\n        return _totalSupply;\r\n    }\r\n\r\n    function balanceOf(address account) public view override returns (uint256) {\r\n        return _balances[account];\r\n    }\r\n\r\n    function transfer(address recipient, uint256 amount) public override returns (bool) {\r\n        _transfer(msg.sender, recipient, amount);\r\n        return true;\r\n    }\r\n\r\n    function allowance(address owner, address spender) public view override returns (uint256) {\r\n        return _allowances[owner][spender];\r\n    }\r\n\r\n    function approve(address spender, uint256 value) public override returns (bool) {\r\n        _approve(msg.sender, spender, value);\r\n        return true;\r\n    }\r\n\r\n    function transferFrom(address sender, address recipient, uint256 amount) public override returns (bool) {\r\n        _transfer(sender, recipient, amount);\r\n        _approve(sender, msg.sender, _allowances[sender][msg.sender].sub(amount));\r\n        return true;\r\n    }\r\n\r\n    function increaseAllowance(address spender, uint256 addedValue) public returns (bool) {\r\n        _approve(msg.sender, spender, _allowances[msg.sender][spender].add(addedValue));\r\n        return true;\r\n    }\r\n\r\n    function decreaseAllowance(address spender, uint256 subtractedValue) public returns (bool) {\r\n        _approve(msg.sender, spender, _allowances[msg.sender][spender].sub(subtractedValue));\r\n        return true;\r\n    }\r\n\r\n    function _transfer(address sender, address recipient, uint256 amount) internal {\r\n        require(sender != address(0), \"ERC20: transfer from the zero address\");\r\n        require(recipient != address(0), \"ERC20: transfer to the zero address\");\r\n\r\n        _balances[sender] = _balances[sender].sub(amount);\r\n        _balances[recipient] = _balances[recipient].add(amount);\r\n        emit Transfer(sender, recipient, amount);\r\n    }\r\n\r\n    function _mint(address account, uint256 amount) internal {\r\n        require(account != address(0), \"ERC20: mint to the zero address\");\r\n\r\n        _totalSupply = _totalSupply.add(amount);\r\n        _balances[account] = _balances[account].add(amount);\r\n        emit Transfer(address(0), account, amount);\r\n    }\r\n\r\n    function _burn(address account, uint256 value) internal {\r\n        require(account != address(0), \"ERC20: burn from the zero address\");\r\n\r\n        _totalSupply = _totalSupply.sub(value);\r\n        _balances[account] = _balances[account].sub(value);\r\n        emit Transfer(account, address(0), value);\r\n    }\r\n\r\n    function _approve(address owner, address spender, uint256 value) internal {\r\n        require(owner != address(0), \"ERC20: approve from the zero address\");\r\n        require(spender != address(0), \"ERC20: approve to the zero address\");\r\n\r\n        _allowances[owner][spender] = value;\r\n        emit Approval(owner, spender, value);\r\n    }\r\n\r\n    function _burnFrom(address account, uint256 amount) internal {\r\n        _burn(account, amount);\r\n        _approve(account, msg.sender, _allowances[account][msg.sender].sub(amount));\r\n    }\r\n}\r\n\r\n// File: contracts/TokenMintERC20Token.sol\r\n\r\npragma solidity ^0.8.21;\r\n\r\ncontract TokenMintERC20Token is ERC20 {\r\n    address payable feeReceiver;\r\n\r\n    constructor(\r\n        string memory tokenName, \r\n        string memory tokenSymbol, \r\n        uint8 tokenDecimals, \r\n        uint256 initialSupply, \r\n        address payable feeReceiverAddress, \r\n        address tokenOwnerAddress\r\n    ) payable ERC20(tokenName, tokenSymbol, tokenDecimals, initialSupply) {\r\n        feeReceiver = feeReceiverAddress;\r\n        _mint(tokenOwnerAddress, initialSupply);\r\n\r\n        // Pay the service fee for contract deployment\r\n        feeReceiver.transfer(msg.value);\r\n    }\r\n\r\n    function burn(uint256 value) public {\r\n        _burn(msg.sender, value);\r\n    }\r\n}\r\n",
  "sourcePath": "C:\\Users\\Towncraft\\Documents\\My Crypto\\ShibaInuToken\\contracts\\TokenMintERC20Token.sol",
  "compiler": {
    "name": "solc",
    "version": "0.8.21+commit.d9974bed.Emscripten.clang"
  },
  "schemaVersion": "3.4.16",
  "updatedAt": "2024-05-24T15:34:46.302Z",
  "devdoc": {
    "kind": "dev",
    "methods": {},
    "version": 1
  },
  "userdoc": {
    "kind": "user",
    "methods": {},
    "version": 1
  }
}